:020000040800F2
:10000000A05E002071020008531400087D13000850
:10001000511400082D0B0008E9140008000000002E
:10002000000000000000000000000000571400085D
:100030002F0B000800000000551400085914000898
:100040008B0200088B0200088B0200088B0200085C
:100050008B0200088B0200088B0200088B0200084C
:100060008B0200088B0200088B0200088B0200083C
:100070008B0200088B0200088B0200088B0200082C
:100080008B0200088B0200088B0200088B0200081C
:100090008B0200088B0200088B0200088B0200080C
:1000A0008B0200088B0200088B0200088B020008FC
:1000B0008B0200088B0200088B0200088B020008EC
:1000C0008B0200088B0200088B0200088B020008DC
:1000D0008B0200088B0200088B0200088B020008CC
:1000E0008B0200088B0200088B0200088B020008BC
:1000F0008B0200088B0200088B0200088B020008AC
:100100008B0200088B0200088B0200088B0200089B
:100110008B0200088B0200088B0200088B0200088B
:100120008B0200088B0200088B0200088B0200087B
:100130008B0200088B0200088B0200088B0200086B
:100140008B0200088B0200088B0200088B0200085B
:100150008B0200088B0200088B0200088B0200084B
:100160008B0200088B0200088B0200088B0200083B
:100170008B0200088B0200088B02000800000000C0
:100180008B0200088B02000800F002F800F060F813
:100190000AA090E8000C82448344AAF10107DA45E2
:1001A00001D100F055F8AFF2090EBAE80F0013F0D4
:1001B000010F18BFFB1A43F001031847E4160000B3
:1001C0000417000010F8013B0A4413F0030408BFB1
:1001D00010F8014B1D1108BF10F8015B641E05D01B
:1001E00010F8016B641E01F8016BF9D1002D15D0D8
:1001F00010F8014B03F00C030C2BA1EB04040ABF15
:1002000010F8013BA4EB8314A4EB032405F10103D4
:1002100014F8016B5B1E01F8016BF9D5914238BFF0
:1002200010F8013BD1D3704700230024002500269D
:10023000103A28BF78C1FBD8520728BF30C148BF49
:100240000B6070471FB501F01DFB1FBD10B510BD41
:1002500000F0CFF81146FFF7F5FF01F0B3F900F019
:10026000EDF803B4FFF7F2FF03BC00F0F5F800006F
:100270000948804709480047FEE7FEE7FEE7FEE73A
:10028000FEE7FEE7FEE7FEE7FEE7FEE70448054976
:10029000054A064B70470000D91400088901000880
:1002A000A0580020A05E0020A05A0020A05A0020E4
:1002B00053EA020C00F069802DE9F04B4FF0000684
:1002C000002B1FBFB3FA83F503FA05F424FA05F6F1
:1002D0005E4012BF1643B2FA82F502FA05F4C5F188
:1002E00020051EBF22FA05FC44EA0C04203556EA1C
:1002F000044C4FEA144418BF641C4FF000084FF040
:100300000009904271EB030C39D3002919BFB1FAEF
:1003100081F701FA07F6B0FA80F700FA07F6C7F19D
:1003200020071EBF20FA07FC46EA0C062037B6FB62
:10033000F4FCA7EB0507103F07F01F0BCBF12006DD
:100340000CFA0BFB2CFA06F644BFB3460026202F0E
:10035000A4BF5E464FF0000B5BEA060C08BF4FF0EF
:10036000010B19EB0B09ABFB027C48EB0608C01B29
:1003700006FB02CC0BFB03CC71EB0C01C1E70B4677
:10038000024641464846BDE8F08B13B54FF00000E9
:100390004FF00001AFF30080BDE81C4070474FF004
:1003A000000200B5134694469646203922BFA0E8C5
:1003B0000C50A0E80C50B1F12001BFF4F7AF0907D1
:1003C00028BFA0E80C5048BF0CC05DF804EB8900C2
:1003D00028BF40F8042B08BF704748BF20F8022B05
:1003E00011F0804F18BF00F8012B7047704770471D
:1003F0007047754600F02CF8AE4605006946534636
:1004000020F00700854618B020B5FFF73FFFBDE894
:1004100020404FF000064FF000074FF000084FF06B
:10042000000B21F00701AC46ACE8C009ACE8C009FC
:10043000ACE8C009ACE8C0098D46704710B5044669
:10044000AFF300802046BDE81040FFF70ABF000070
:10045000004870474058002001491820ABBEFEE715
:10046000260002007047000070B50122294D540299
:100470002146284600F054FC00222146284600F080
:100480004FFC254D00222021284600F049FC022087
:1004900001F05AF8214E0024305D01F055F8641C3B
:1004A000042CF9DB01222021284600F039FC082029
:1004B000401EFDD100222021284600F031FC0320FF
:1004C00001F042F8154E0024361D305D01F03CF875
:1004D000641C042CF9DB01222021284600F020FCBA
:1004E0000820401EFDD100224021284600F018FCC3
:1004F0000821491EFDD101224021284600F010FCB0
:100500000821491EFDD12846BDE870400022402147
:1005100000F006BC00080240001802401000002055
:1005200000EE100ADFED340AFEB5B8EE400A2FA146
:10053000324D096880EE801A02912DA1D1E9002187
:10054000CDE900210022BCEEC10A10EE100A8DF8A0
:100550000200010A8DF801102021284600F0E0FB7E
:10056000002000F0F1FF002402AE305D00F0ECFF4F
:10057000641C042CF9DB01222021284600F0D0FB6A
:100580000820401EFDD100222021284600F0C8FB93
:100590000E2000F0D9FF00246E46305D00F0D4FF3D
:1005A000641C082CF9DB012220212C46284600F08F
:1005B000B7FB0820401EFDD100224021204600F05C
:1005C000AFFB0821491EFDD101224021204600F049
:1005D000A7FB0821491EFDD100224021204600F042
:1005E0009FFB0820401EFDD1FEBD0000E040000042
:1005F000000001FFC00000044911064A0018024033
:100600007FB536A037A10068029035A0374D00684D
:100610000390D1E90001CDE9000100222021284604
:1006200000F07EFB002000F08FFF002402AE305D62
:1006300000F08AFF641C042CF9DB012220212846EB
:1006400000F06EFB0820401EFDD10022202128462C
:1006500000F066FB012000F077FF002403AE305D60
:1006600000F072FF641C042CF9DB012220212C46CF
:10067000284600F055FB0820401EFDD10022202115
:100680002546204600F04CFB0E2000F05DFF0024C4
:100690006E46305D00F058FF641C082CF9DB012227
:1006A0002021284600F03CFB0821491EFDD10022F4
:1006B0004021284600F034FB0821491EFDD10122CB
:1006C0004021284600F02CFB0821491EFDD10022C4
:1006D0004021284600F024FB7FBD000000400000C0
:1006E000014008203FFF0000000000000018024009
:1006F0007CB526A0274D0068009025A00022006848
:1007000001902021284600F00BFB002000F01CFF88
:1007100000246E46305D00F017FF641C042CF9DBEA
:1007200001222021284600F0FBFA0821491EFDD1B4
:1007300000222021284600F0F3FA012000F004FFF7
:10074000002401AE305D00F0FFFE641C042CF9DBD8
:1007500001222021284600F0E3FA0821491EFDD19C
:1007600000224021284600F0DBFA0821491EFDD175
:1007700001224021284600F0D3FA0821491EFDD16C
:1007800000224021284600F0CBFA7CBD004000004A
:100790000041082000180240F8B524A10968009122
:1007A00000F05FFF9FED221B53EC112B00F06CFF5C
:1007B00000F02AFF8DF80300010A8DF80210010CE9
:1007C0008DF80110000E1C4D8DF800000022202134
:1007D000284600F0A5FA072000F0B6FE00246E4679
:1007E000305D00F0B1FE641C042CF9DB01222021F5
:1007F0002C46284600F094FA0821491EFDD100221B
:100800004021204600F08CFA0821491EFDD101222A
:100810004021204600F084FA0821491EFDD1002223
:100820004021204600F07CFAF8BD00000000A7C679
:1008300095D626E80B2E1140001802407CB526A064
:10084000274D0068009025A000220068019020211B
:10085000284600F065FA002000F076FE00246E467F
:10086000305D00F071FE641C042CF9DB01222021B4
:10087000284600F055FA0821491EFDD1002220210A
:10088000284600F04DFA012000F05EFE002401AE83
:10089000305D00F059FE641C042CF9DB012220219C
:1008A000284600F03DFA0821491EFDD100224021D2
:1008B000284600F035FA0821491EFDD101224021C9
:1008C000284600F02DFA0821491EFDD100224021C2
:1008D000284600F025FA7CBD0040000001400820B9
:1008E000001802402DE9F04104461D46174608460F
:1008F00000F0B7FE9FED301B53EC112B00F0C4FE4F
:1009000000F082FE0646284600F0ABFE9FED2C1B51
:1009100053EC112B00F0B8FE00F076FE082C14D238
:10092000DFE804F00406080A0C0E10120E250CE095
:100930000F250AE0102508E0112506E0122504E045
:10094000132502E0142500E015251F4C310A002272
:10095000E671A171310C6171310E2171E070000AF4
:10096000A0706770380A194E20702021304600F0C0
:10097000D7F9284600F0E8FD0025605D00F0E4FDB1
:100980006D1C082DF9DB012220213446304600F091
:10099000C7F90820401EFDD101224021204600F069
:1009A000BFF90820401EFDD12046BDE8F0410022DD
:1009B000402100F0B5B9000095D626E80B2E114075
:1009C000012FC1166CC166403C0000200018024097
:1009D000FEB505464CA04DA100680290D1E900018A
:1009E000CDE900014B4E00222021304600F098F95D
:1009F000002000F0A9FD002402AF385D00F0A4FD46
:100A0000641C042CF9DB01222021304600F088F917
:100A10000820401EFDD100222021304600F080F940
:100A20000E2000F091FD00246F46385D00F08CFD33
:100A3000641C082CF9DB01222021304600F070F9FB
:100A40000820401EFDD100224021304600F068F908
:100A50000820401EFDD101224021304600F060F9FF
:100A60000820401EFDD100224021304600F058F9F8
:100A70000820401EFDD100222021304600F050F910
:100A8000162000F061FD00244FF48067012D04D092
:100A9000022D04D0032D06D014E01F4800E01F48AB
:100AA00050F824000CE01E4850F8240000F0D9FD56
:100AB0009FED1C1B53EC112B00F0E6FD00F0A4FD94
:100AC00000F014FD641CBC42E0DB01222021304612
:100AD00000F026F900224021304600F021F90820DC
:100AE000401EFDD101224021304600F019F90821B5
:100AF000491EFDD100224021304600F011F90820A6
:100B0000401EFDD1FEBD000060400000000001FF5E
:100B1000C0000000001802404400002044100020E3
:100B200040280020000000000000F83FFEE770476A
:100B30002DE9F84FDFF8BCA10022012503264FF074
:100B40000F090AF1040BAAF1040E00BF0B6805FAA5
:100B500002F42340A34270D10F7907F00307012F5D
:100B600001D0022F16D187684FEA420806FA08FC26
:100B700027EA0C07D1F80CC00CFA08FC4CEA070C69
:100B8000C0F808C04768A7430C79C4F30014944028
:100B90003C4344600C79E443A4070AD0C4684FEA9C
:100BA000420C06FA0CF7BC438F6807FA0CF7274390
:100BB000C7600C7904F00304022C12D1D40800EBB6
:100BC000840CDCF820405707FF0E09FA07F824EAE6
:100BD0000804D1F8108008FA07F848EA0408CCF8AD
:100BE000208004684FEA420C06FA0CF7BC430F79E8
:100BF00007F0030707FA0CF7274307604C6814F463
:100C0000403F70D03C4C276847F4804727602468F9
:100C100022F0030704F480440094384C07EB040CE2
:100C2000DCF8084897074FEA177809FA08F7BC4339
:100C3000334FB84202D1002724E054E0314FB8428C
:100C400001D101271EE0304FB84201D1022719E03F
:100C50002E4FB84201D1032714E02D4FB84201D1E5
:100C600004270FE02B4FB84201D105270AE02A4F95
:100C7000B84201D1062705E0284FB84201D1072725
:100C800000E0082707FA08F72743CCF80878DAF8D5
:100C900000405746D1F804C09C435FEACC2C00D5F5
:100CA0001C433C60DBF800405F46D1F804C09C4325
:100CB0005FEA8C2C00D51C433C60DEF80040774690
:100CC000D1F804C09C435FEA8C3C00D51C433C60D7
:100CD000084F083F3C68D1F804C09C435FEACC3C15
:100CE00000D51C433C60521C102AFFF42FAFBDE816
:100CF000F88F0000083C01404438024000300140B9
:100D0000000002400004024000080240000C0240C3
:100D1000001002400014024000180240001C024073
:100D20000AB1816170470904FBE70000014880684F
:100D300070470000000000200248816802781144DA
:100D400081607047000000200B4810B5016841F435
:100D500000710160016841F480610160016841F443
:100D600080710160032000F061F80F2000F006F8A8
:100D700000F024F8002010BD003C024070B50D4D7D
:100D800004464FF47A712878B1FBF0F00A490968FB
:100D9000B1FBF0F000F0DEFA48B9102C07D20022C7
:100DA0002146501E00F022F800206C6070BD01202A
:100DB00070BD0000000000200C0000200A4808B5AB
:100DC000016841F480410160006800F480400090B7
:100DD0000548001F016841F080510160006800F083
:100DE0008050009008BD000044380240F0B40E4B23
:100DF0001B680C46C3F30223C3F10705042D00D979
:100E00000425191D072901D2002300E0DB1E01265D
:100E100006FA05F1491E214099409E40761E164073
:100E20003143F0BC00F0BEBB0CED00E0064900F021
:100E3000070208684FF6FF03184040EA0220034A01
:100E400010430860704700000CED00E00000FA0558
:100E50002DE9F0470E46050065D0DFF81481D8F87B
:100E60000000F7B200F00700B04207D288F8007027
:100E7000D8F8000000F00700B04254D128683D4C7B
:100E8000810712D5400703D5206840F4E050206068
:100E90002878000703D5206840F46040206020686F
:100EA000A96820F0F000084320602878C0072DD002
:100EB000304968680839012812D0022813D0032865
:100EC00011D00968890700292DDA216821F0030172
:100ED00001432160FFF72AFF814641F2883A0EE084
:100EE00009688903EFE709688901ECE7FFF71EFF4E
:100EF000A0EB0901514502D90320BDE8F087206825
:100F0000696800F00C00B0EB810FEFD1D8F8001049
:100F1000404601F00701B14207D90770006800F0B0
:100F20000700B04201D00120E7E72878400705D547
:100F30002068E96820F4E050084320602878000722
:100F400006D52068296920F4604040EAC10020608D
:100F500000F018F82168084AC1F30311515CC84039
:100F60000649086006480068FFF708FF0020C4E74C
:100F7000003C0240083802408E1800080C00002097
:100F800004000020154810B5006810F00C02144849
:100F900013D01449042A0FD0082A0ED10F4C241F55
:100FA0002268236802F03F025B0207D52068C0F385
:100FB0008810A0FB010106E0084610BD2168C1F3BE
:100FC0008811A1FB00010023FFF772F92168C1F32A
:100FD0000141491C4900B0FBF1F010BD0838024046
:100FE0000024F40040787D012DE9F84F04006ED014
:100FF0002078DFF84C93C007A9F104054AD009F125
:1010000004000168C1F38101012908D00068C0F320
:10101000810002280AD1D9F80000400206D52868CC
:10102000800337D560680028E1D033E06068B0F510
:10103000803F10D0B0F5A02F286810D020F4803069
:101040002860286820F4802028606068A8B1FFF735
:101050006DFE06460DE0286840F48030F4E740F469
:1010600080202860F7E700BFFFF760FE801B642840
:1010700073D828688003F7D50CE0FFF757FE0646C3
:1010800005E000BFFFF752FE801B6428F0D82868F7
:101090008003F7D42078DFF8AC8280074FF0000A95
:1010A0003ED5A748001D016811F00C0F08D000685C
:1010B000C0F3810002280BD1D9F80000400207D408
:1010C0002868800716D5E068012800D112E033E1D6
:1010D000E068B8B10120C8F80000FFF727FE064617
:1010E00005E000BFFFF722FE801B0228C0D8286859
:1010F0008007F7D52868216920F0F80040EAC10090
:1011000028600DE0C8F800A0FFF710FE064604E0D6
:10111000FFF70CFE801B02281FD828688007F7D431
:101120002078000722D5864F87486169703771B1F2
:1011300001210160FFF7FAFD064604E0FFF7F6FD26
:10114000801B022809D838688007F7D50EE0C0F860
:1011500000A0FFF7EBFD064605E082E0FFF7E6FDA5
:10116000801B02287DD838688007F7D42078400794
:1011700068D5DFF8CCB100270BF13C0BDBF80000A1
:10118000C0000BD4DBF8001041F08051CBF8001008
:10119000DBF80000012700F0805000906B4E3068B3
:1011A000C00510D4306840F480703060FFF7BEFD99
:1011B000009005E0FFF7BAFD0099401A022850D8C8
:1011C0003068C005F6D55E4EA0686C3601280FD099
:1011D0000528306810D020F001003060306820F021
:1011E00004003060A068B8B1FFF7A0FD00900FE0E8
:1011F000306840F00100F4E740F004003060F7E7A9
:10120000FFF794FD0099411A41F28830814266D877
:1012100030688007F4D50EE0FFF788FD009007E006
:10122000FFF784FD0099411A41F28830814256D877
:1012300030688007F4D42FB1DBF8001021F0805122
:10124000CBF80010A069C8B33D49091D0968C1F376
:10125000810102294AD00228504607D0C8F8600010
:1012600000E03CE0FFF762FD04463BE04746C8F87B
:101270006000FFF75BFD064605E000BFFFF756FD87
:10128000801B02282BD828688001F7D4D4E90701F5
:101290000843A16A2E4A490802EB0141626A41EA09
:1012A0008211084394F82C1040EA0161C9F800103B
:1012B00001203866FFF73AFD044606E03EE000BF35
:1012C000FFF734FD001B022809D828688001F7D5F4
:1012D00034E000BFFFF72AFD001B022802D90320DB
:1012E000BDE8F88F28688001F4D427E00128F7D002
:1012F000D9F80000E26900F4800191421CD1226A11
:1013000000F03F01914217D147F6C071626A014077
:10131000B1EB821F10D1A26A4FF0FF3300F44031CD
:1013200003EB5202B1EB024F06D194F82C1000F0FF
:101330007060B0EB016F01D00120D1E70020CFE752
:101340000438024000004742800E474200700040CF
:101350000000FFFF10B5401EB0F1807F01D30120D7
:1013600010BD4FF0E02460610F21601700F01AF902
:101370000020A06107202061002010BDFEE70000D2
:101380002DE9F04786B014216846FFF708F82C488D
:101390000024016841F080010160016801F08001D2
:1013A0000591016841F040010160016801F04001D0
:1013B0000591016841F004010160016801F0040138
:1013C0000591016841F0010101600068DFF8748057
:1013D00000F001004FF4FE750590002229464046BA
:1013E000FFF79EFCDFF860904FF450760022314604
:1013F0004846FFF795FCDFF854A04FF480770022B1
:1014000039465046FFF78CFC00950125CDE9015483
:10141000694640460394FFF78BFB0096CDE90154E3
:10142000694648460394FFF783FB0097CDE90154D2
:10143000694650460394FFF77BFB06B0BDE8F08792
:10144000303802400018024000080240000002400C
:10145000FEE7FEE770477047FFF76EBC10B592B02D
:1014600030216846FEF79BFF14210CA8FEF797FF7A
:1014700017480024016841F080510160006800F0C5
:10148000805011901348016841F480410160006868
:10149000069400F4804011900220009001200390F7
:1014A000102004906846FFF79FFD08B172B6FEE772
:1014B0000F20CDE90C040E940F9400210CA8109479
:1014C000FFF7C6FC002801D072B6FEE712B010BDCF
:1014D00040380240007000400248016841F4700149
:1014E0000160704788ED00E0FEE700002DE9F0475D
:1014F000134E07464FF00045002210213046FFF7FB
:101500000FFCDFF8409000244FF480782F4201D187
:10151000002200E0012241464846FFF701FC01227B
:1015200010213046FFF7FCFB6D08002210213046E9
:10153000FFF7F6FB641CE4B2202CE7D3BDE8F0878C
:1015400000180240000002402DE9F047134E074604
:101550008025002210213046FFF7E2FBDFF84090A3
:1015600000244FF480782F4201D1002200E00122B4
:1015700041464846FFF7D4FB012210213046FFF7D1
:10158000CFFB6D08002210213046FFF7C9FB641C19
:10159000E4B2082CE7D3BDE8F08700000018024051
:1015A000000002400907090E002804DB00F1E020DA
:1015B00080F80014704700F00F0000F1E02080F880
:1015C000141D7047FFF7C0FBFFF748FFFFF7D8FE79
:1015D000FEF74AFFFFF732F9002343F6FF7209498D
:1015E0001846FFF77FF9FFF70BF8FFF781F80020A7
:1015F000FFF7D2F80220FFF7EBF942F21070FEF786
:101600008FFFFEE78074D21A4FEA1153A3F580636F
:10161000D3F11E03A8BFD3F1200C08DB4FF000422A
:1016200042EAC12252EA505232FA03F070470942AC
:101630000BD4102BC4BF0020704703F5787CBCF19D
:10164000FF3F05D04FF0FF3070474FF0000070476C
:1016500070B500F0C3F800BF4992248000207047A5
:10166000F0E7B0FA80F310FA03F10AD0C3F11D03DA
:1016700003F580634FEA41504FEA035202EBD12158
:1016800070474FF000007047DFF848C170B51CEAA2
:10169000111E1EBF1CEA13159EEA0C0F95EA0C0FD3
:1016A00000F06F8081EA030423EA4C134EEAD47EF3
:1016B00021EA4C1141F4801143F48013AE44A1FBA4
:1016C000024CA0FB0365AEF17F7E361955EB0C058D
:1016D000A1FB034C4CF10003A0FB021C16EB0C0613
:1016E000654153F10003094218BF46F0010613F4A7
:1016F000007F0BD14FEA03314FEA0530340341EA52
:10170000155140EA16506FF003020AE04FEAC32178
:101710004FEAC520F40241EA555140EA56506FF0B5
:10172000020202EB2E4201EB025585EACE710AD08D
:101730005FEA440C18BF24F0004450F1000041F16E
:10174000000120EAD47040F2FE7C624500D270BDF8
:10175000A84214BF4FF080444FF04044002E08BF11
:101760000024BEF1806FA8BFA1F1C041BDE8704068
:1017700080F282804FF0000001F1C04101F0004191
:1017800070479EEA0C0F0CEA131518BF95EA0C0F70
:1017900006D04FF0000081EA030E0EF0004170BD4C
:1017A00000F01CF88900013E00F007B800F009B80D
:1017B0004FEA430C5FEA5C5C08D081EA030100F069
:1017C0005BB84FEA410C5FEA5C5CF6D14FF0000079
:1017D000014970470000FF070000F87F0EF1020E7C
:1017E0002EF0030E5EF8046B364205D4012A43EB5B
:1017F000030515F5001F12D8012841EB010C1CF55B
:10180000001F0CD80ED14FEAD17C15F5001F0CEB50
:101810004C0C0CF1020C08BF4CEBD37C04E04FF0F5
:10182000080C01E04FEAD37C0CEB4C0526FA05F6D8
:1018300006F00706B6F1040C06D20EEB860CBDE8E6
:1018400070404CF0010C6047DFE80CF0090B02021D
:101850004FF000414FF00000A1F5002170BD194686
:101860001046012851EB010418BFD4F5001484BFC1
:10187000002001F0004170BD0808A0F500114FEAFA
:10188000310170474FF04070E1EE100A70470000E0
:101890000000000000000102030406070809000020
:1018A000C01800080000002040580000C4010008D3
:1018B000E0240008405800206006000028020008CC
:1018C000500701000000100001100824F400050F6B
:1018D00041500A327F1022400400081B08300000EB
:1018E000A7C6000103FFFFFF0401FF0401FF04017D
:1018F000E20402FF7F0401FF0401FF0401E204028D
:10190000FF3F0401FF0401FF0401E20402FF1F0482
:1019100001FF0401FF0401E2040D5BA00F1D190C7F
:10192000101B008104000002090000830D00000468
:1019300012000085160000061B000087FA1C1A081A
:101940002400008A2800000B2D00008C3100000DBF
:101950003600008E3A00000F82041C4B90430000BA
:1019600011480000924C00001351000094550000F3
:10197000155A0000965E000017630000986700008B
:10198000196C00009A7000001B7500009D79000022
:101990001E7E00009F82000020870000A18B0000B7
:1019A00022900000A394BF101C0A990000A59D007E
:1019B0000026A2B2101C1DA6000028AB0000A9AF93
:1019C00000002AB40000ABB800002CBD0000ADC17F
:1019D00000002ECE101C32B0CA000031CF0000B281
:1019E000D3000033D80000B4DC000035E10000B6BD
:1019F000E5000037EA0000B8EE000039F30000BA55
:101A0000F700003BFC00003CFE0C1013BBFA00008A
:101A10003AF60000B9F1000038ED0000B7E83412E2
:101A2000E43C12DF4412DB4C12D65412D25C10326A
:101A3000CD00002FC90000AEC400002DC00000ACD6
:101A4000BB00002BB70000AAB2000029AE0000A81E
:101A5000A9000027A50000A6A00000259C0000A466
:101A600097C41293CC128ED4128ADC1285E41281B0
:101A7000EC14327C00001C7800009B7300001A6F8D
:101A80000000996A00001866000097610000165D6A
:101A900000009558000014540000934F0000124BB2
:101AA000000091465416425C163D6416396C16349B
:101AB000741DBE111C1A8A2B000009270000882201
:101AC0000000071E0000861900000515000084F9BB
:101AD000111C0E030C0000820700000103000080AF
:101AE0000D1213010610160AC4160FC41613C416DD
:101AF00018C4161CC41C1D210000892500000A2AD8
:101B000000008B2E00000C3300008D3700000E3CCF
:101B100000008F281213104580124988124E90122F
:101B200052981257A0165BC41660C41664C4166996
:101B3000C4166DC41C0D7200009C7600001D7B0055
:101B4000009E6A0A14131F840000A0880000218DE3
:101B50000000A2910000239610169A18169F2016D6
:101B6000A32816A83016ACC416B1C416B5C416BA4C
:101B7000C416BEC41422C30000AFC7000030CC009E
:101B800000B1D0000032D50000B3D9000034DE002F
:101B900000B5E2000036E7A016EBA816F0B016F488
:101BA000B816F9C042FD04210C2114211C21242166
:101BB0002C2134213C2144214C2154215C216421DD
:101BC0006C2174217C2184218C2194219C21A421CD
:101BD000AC21B443FB0EC421CC21D421DC21E4216F
:101BE000EC21F421FC2504250C2514251C25242595
:101BF0002C2534253C2544254C2554255C2564257D
:101C00006C2574257C2584258C2594259C25A4256C
:101C1000AC25B425BC35C44603D425DC25E425EC2D
:101C200025F425FC2904290C2914291C2924292CF4
:101C30002934293C2944294C2954295C2964296CDC
:101C40002974297C2984298C2994299C29A429ACCC
:101C500029B429BC29C429CC29D429DC29E429ECBC
:101C600029F429FC2D04032D0C032D14032D1C0332
:101C70002D24032D2C032D34032D3C032D44032D43
:101C80004C032D54032D5C032D64032D6C032D7424
:101C9000032D7C032D84032D8C032D94032D9C0395
:101CA0002DA4032DAC032DB4032DBC032DC4032D93
:101CB000CC032DD4032DDC032DE4032DEC032DF4F4
:101CC000032DFC032D04042D0C042D14042D1C04E1
:101CD0002D24042D2C042D34042D3C042D44042DDE
:101CE0004C042D54042D5C042D64042D6C042D74BF
:101CF000042D7C042D84042D8C042D94042D9C042F
:101D00002DA4042DAC042DB4042DBC042DC4042D2D
:101D1000CC042DD4042DDC042DE4042DEC042DF48E
:101D2000042DFC042D04052D0C052D14052D1C057A
:101D30002D24052D2C052D34052D3C052D44052D78
:101D40004C050EFF0054050DFF54050DFF540521F1
:101D5000B421BC0DFF54050D9D54050FFFEC20541C
:101D6000050DFF54050DFF54050DFF54050DFF54DF
:101D7000050DF5A80A1004FF7FFF0400FF00FE0117
:101D8000FF7FFD02FF7FFC03FF7FFB04FF7FFA055F
:101D9000FF7FF906FF7FF807FF7FF708FF7FF6094F
:101DA000FF7FF50AFF7FF40BFF7FF30CFF7FF20D3F
:101DB000FF7FF10EFF7FF00FFF7FEF10FF7FEE112F
:101DC000FF7FED12FF7FEC13FF7FEB14FF7FEA151F
:101DD000FF7FE916FF7FE817FF7FE718FF7FE6190F
:101DE000FF7FE51AFF7FE41BFF7FE31CFF7FE21DFF
:101DF000FF7FE11EFF7FE01FFF7FDF20FF7FDE21EF
:101E0000FF7FDD22FF7FDC23FF7FDB24FF7FDA25DE
:101E1000FF7FD926FF7FD827FF7FD728FF7FD629CE
:101E2000FF7FD52AFF7FD42BFF7FD32CFF7FD22DBE
:101E3000FF7FD12EFF7FD02FFF7FCF30FF7FCE31AE
:101E4000FF7FCD32FF7FCC33FF7FCB34FF7FCA359E
:101E5000FF7FC936FF7FC837FF7FC738FF7FC6398E
:101E6000FF7FC53AFF7FC43BFF7FC33CFF7FC23D7E
:101E7000FF7FC13EFF7FC03FFF7FBF4000FF00FFED
:101E80007FBE41FF7FBD42FF7FBC43FF7FBB44FF5E
:101E90007FBA45FF7FB946FF7FB847FF7FB748FF4E
:101EA0007FB649FF7FB54AFF7FB44BFF7FB34CFF3E
:101EB0007FB24DFF7FB14EFF7FB04FFF7FAF50FF2E
:101EC0007FAE51FF7FAD52FF7FAC53FF7FAB54FF1E
:101ED0007FAA55FF7FA956FF7FA857FF7FA758FF0E
:101EE0007FA659FF7FA55AFF7FA45BFF7FA35CFFFE
:101EF0007FA25DFF7FA15EFF7FA05FFF7F9F60FFEE
:101F00007F9E61FF7F9D62FF7F9C63FF7F9B64FFDD
:101F10007F9A65FF7F9966FF7F9867FF7F9768FFCD
:101F20007F9669FF7F956AFF7F946BFF7F936CFFBD
:101F30007F926DFF7F916EFF7F906FFF7F8F70FFAD
:101F40007F8E71FF7F8D72FF7F8C73FF7F8B74FF9D
:101F50007F8A75FF7F8976FF7F8877FF7F8778FF8D
:101F60007F8679FF7F857AFF7F847BFF7F837CFF7D
:101F70007F827DFF7F817EFF7F807FFF7F00FF006C
:101F80007F80FF7F7E81FF7F7D82FF7F7C83FF7F5D
:101F90007B84FF7F7A85FF7F7986FF7F7887FF7F4D
:101FA0007788FF7F7689FF7F758AFF7F748BFF7F3D
:101FB000738CFF7F728DFF7F718EFF7F708FFF7F2D
:101FC0006F90FF7F6E91FF7F6D92FF7F6C93FF7F1D
:101FD0006B94FF7F6A95FF7F6996FF7F6897FF7F0D
:101FE0006798FF7F6699FF7F659AFF7F649BFF7FFD
:101FF000639CFF7F629DFF7F619EFF7F609FFF7FED
:102000005FA0FF7F5EA1FF7F5DA2FF7F5CA3FF7FDC
:102010005BA4FF7F5AA5FF7F59A6FF7F58A7FF7FCC
:1020200057A8FF7F56A9FF7F55AAFF7F54ABFF7FBC
:1020300053ACFF7F52ADFF7F51AEFF7F50AFFF7FAC
:102040004FB0FF7F4EB1FF7F4DB2FF7F4CB3FF7F9C
:102050004BB4FF7F4AB5FF7F49B6FF7F48B7FF7F8C
:1020600047B8FF7F46B9FF7F45BAFF7F44BBFF7F7C
:1020700043BCFF7F42BDFF7F41BEFF7F40BF1CFDD1
:10208000FF7F3FC0FF7F3EC1FF7F3DC2FF7F3CC35C
:10209000FF7F3BC4FF7F3AC5FF7F39C6FF7F38C74C
:1020A000FF7F37C8FF7F36C9FF7F35CAFF7F34CB3C
:1020B000FF7F33CCFF7F32CDFF7F31CEFF7F30CF2C
:1020C000FF7F2FD0FF7F2ED1FF7F2DD2FF7F2CD31C
:1020D000FF7F2BD4FF7F2AD5FF7F29D6FF7F28D70C
:1020E000FF7F27D8FF7F26D9FF7F25DAFF7F24DBFC
:1020F000FF7F23DCFF7F22DDFF7F21DEFF7F20DFEC
:10210000FF7F1FE0FF7F1EE1FF7F1DE2FF7F1CE3DB
:10211000FF7F1BE4FF7F1AE5FF7F19E6FF7F18E7CB
:10212000FF7F17E8FF7F16E9FF7F15EAFF7F14EBBB
:10213000FF7F13ECFF7F12EDFF7F11EEFF7F10EFAB
:10214000FF7F0FF0FF7F0EF1FF7F0DF2FF7F0CF39B
:10215000FF7F0BF4FF7F0AF5FF7F09F6FF7F08F78B
:10216000FF7F07F8FF7F06F9FF7F05FAFF7F04FB7B
:10217000FF7F03FCFF7F02FDFF7F01FE102042FF77
:102180000821102118212021282130213821402127
:102190004821502158216021682170217821802117
:1021A000882190219821A021A821B021B821C02107
:1021B000C821D021D821E021E821F021F8250025EF
:1021C00008251025182520252825302538254025C7
:1021D00048255025582560256825702578258025B7
:1021E000882590259825A025A825B025B825C025A7
:1021F000C825D025D825E025E825F025F82900298F
:102200000829102918292029282930293829402966
:102210004829502958296029682970297829802956
:10222000882990299829A029A829B029B829C02946
:10223000C829D029D829E029E829F029F82D000358
:102240002D08032D10032D18032D20032D28032DF9
:1022500030032D38032D40032D48032D50032D58F6
:10226000032D60032D68032D70032D78032D80034B
:102270002D88032D90032D98032DA0032DA8032D49
:10228000B0032DB8032DC0032DC8032DD0032DD8C6
:10229000032DE0032DE8032DF0032DF8032D00049A
:1022A0002D08042D10042D18042D20042D28042D94
:1022B00030042D38042D40042D48042D50042D5891
:1022C000042D60042D68042D70042D78042D8004E5
:1022D0002D88042D90042D98042DA0042DA8042DE4
:1022E000B0042DB8042DC0042DC8042DD0042DD861
:1022F000042DE0042DE8042DF0042DF8042D000534
:102300002D08052D10052D18052D20052D28052D2E
:1023100030052D38052D40052D48052D50052D582B
:10232000052D60052D68052D70052D78052D80057E
:102330002D88052D90052D98052DA0052DA8052D7E
:10234000B0052DB8052DC0052DC8052DD0052DD8FB
:10235000052DE0052DE8052DF0052DF8052D0006CD
:102360002D08062D10062D18062D20062D28062DC9
:1023700030062D38062D40062D48062D50062D58C6
:10238000062D60062D68062D70062D78062D800618
:102390002D88062D90062D98062DA0062DA8062D19
:1023A000B0062DB8062DC0062DC8062DD0062DD896
:1023B000062DE0062DE8062DF0062DF8062D000767
:1023C0002D08072D10072D18072D20072D28072D64
:1023D00030072D38072D40072D48072D50072D5861
:1023E000072D60072D68072D70072D78072D8007B2
:1023F0002D88072D90072D98072DA0072DA8072DB4
:10240000B0072DB8072DC0072DC8072DD0072DD830
:10241000072DE0072DE8072DF0072DF8071EFC1605
:102420002401FF0401FF0401FF0401FF0401FF0474
:1024300001FF0401FF0401F5042D040801FF04015C
:10244000FF0401FF0401FF0401FF0401FF0401FF79
:102450000401F1040005FF295C8F020401FF04015F
:10246000FF0401DF040004FFBA490C0401FF04016A
:10247000FF0401E0040005FF4C3789010401FF045B
:1024800001FF0401DF040004FFDD24060401FF0452
:1024900001FF0401E00400055A6E128300040005E8
:1024A000FF00004AFF0401FF0401FF0401E10403EF
:1024B000FF00C00401FF0401FF0401E20402FF80E9
:1024C0000401FF0401FF0401E20402FF400401FFD4
:1024D0000401FF0401E104035AB6000400000000F7
:040000050800018965
:00000001FF
